{
  "_format": "hh-sol-artifact-1",
  "contractName": "MyNFTGame",
  "sourceName": "contracts/MyNFTGame.sol",
  "abi": [
    {
      "inputs": [
        {
          "internalType": "string[]",
          "name": "characterNames",
          "type": "string[]"
        },
        {
          "internalType": "string[]",
          "name": "characterImageURIs",
          "type": "string[]"
        },
        {
          "internalType": "uint256[]",
          "name": "characterHp",
          "type": "uint256[]"
        },
        {
          "internalType": "uint256[]",
          "name": "characterAttackDmg",
          "type": "uint256[]"
        },
        {
          "internalType": "string",
          "name": "bossName",
          "type": "string"
        },
        {
          "internalType": "string",
          "name": "bossImageURI",
          "type": "string"
        },
        {
          "internalType": "uint256",
          "name": "bossHp",
          "type": "uint256"
        },
        {
          "internalType": "uint256",
          "name": "bossAttackDamage",
          "type": "uint256"
        }
      ],
      "stateMutability": "nonpayable",
      "type": "constructor"
    },
    {
      "anonymous": false,
      "inputs": [
        {
          "indexed": true,
          "internalType": "address",
          "name": "owner",
          "type": "address"
        },
        {
          "indexed": true,
          "internalType": "address",
          "name": "approved",
          "type": "address"
        },
        {
          "indexed": true,
          "internalType": "uint256",
          "name": "tokenId",
          "type": "uint256"
        }
      ],
      "name": "Approval",
      "type": "event"
    },
    {
      "anonymous": false,
      "inputs": [
        {
          "indexed": true,
          "internalType": "address",
          "name": "owner",
          "type": "address"
        },
        {
          "indexed": true,
          "internalType": "address",
          "name": "operator",
          "type": "address"
        },
        {
          "indexed": false,
          "internalType": "bool",
          "name": "approved",
          "type": "bool"
        }
      ],
      "name": "ApprovalForAll",
      "type": "event"
    },
    {
      "anonymous": false,
      "inputs": [
        {
          "indexed": false,
          "internalType": "uint256",
          "name": "newBossHp",
          "type": "uint256"
        },
        {
          "indexed": false,
          "internalType": "uint256",
          "name": "newPlayerHp",
          "type": "uint256"
        }
      ],
      "name": "AttackComplete",
      "type": "event"
    },
    {
      "anonymous": false,
      "inputs": [
        {
          "indexed": false,
          "internalType": "address",
          "name": "sender",
          "type": "address"
        },
        {
          "indexed": false,
          "internalType": "uint256",
          "name": "tokenId",
          "type": "uint256"
        },
        {
          "indexed": false,
          "internalType": "uint256",
          "name": "characterIndex",
          "type": "uint256"
        }
      ],
      "name": "CharacterNFTMinted",
      "type": "event"
    },
    {
      "anonymous": false,
      "inputs": [
        {
          "indexed": true,
          "internalType": "address",
          "name": "from",
          "type": "address"
        },
        {
          "indexed": true,
          "internalType": "address",
          "name": "to",
          "type": "address"
        },
        {
          "indexed": true,
          "internalType": "uint256",
          "name": "tokenId",
          "type": "uint256"
        }
      ],
      "name": "Transfer",
      "type": "event"
    },
    {
      "inputs": [
        {
          "internalType": "address",
          "name": "to",
          "type": "address"
        },
        {
          "internalType": "uint256",
          "name": "tokenId",
          "type": "uint256"
        }
      ],
      "name": "approve",
      "outputs": [],
      "stateMutability": "nonpayable",
      "type": "function"
    },
    {
      "inputs": [],
      "name": "attackBoss",
      "outputs": [],
      "stateMutability": "nonpayable",
      "type": "function"
    },
    {
      "inputs": [
        {
          "internalType": "address",
          "name": "owner",
          "type": "address"
        }
      ],
      "name": "balanceOf",
      "outputs": [
        {
          "internalType": "uint256",
          "name": "",
          "type": "uint256"
        }
      ],
      "stateMutability": "view",
      "type": "function"
    },
    {
      "inputs": [],
      "name": "bigBoss",
      "outputs": [
        {
          "internalType": "string",
          "name": "name",
          "type": "string"
        },
        {
          "internalType": "string",
          "name": "imageURI",
          "type": "string"
        },
        {
          "internalType": "uint256",
          "name": "hp",
          "type": "uint256"
        },
        {
          "internalType": "uint256",
          "name": "maxHp",
          "type": "uint256"
        },
        {
          "internalType": "uint256",
          "name": "attackDamage",
          "type": "uint256"
        }
      ],
      "stateMutability": "view",
      "type": "function"
    },
    {
      "inputs": [],
      "name": "checkIFUserHasNFT",
      "outputs": [
        {
          "components": [
            {
              "internalType": "uint256",
              "name": "characterIndex",
              "type": "uint256"
            },
            {
              "internalType": "string",
              "name": "name",
              "type": "string"
            },
            {
              "internalType": "string",
              "name": "imageURI",
              "type": "string"
            },
            {
              "internalType": "uint256",
              "name": "hp",
              "type": "uint256"
            },
            {
              "internalType": "uint256",
              "name": "maxHp",
              "type": "uint256"
            },
            {
              "internalType": "uint256",
              "name": "attackDamage",
              "type": "uint256"
            }
          ],
          "internalType": "struct MyNFTGame.CharacterAttributes",
          "name": "",
          "type": "tuple"
        }
      ],
      "stateMutability": "view",
      "type": "function"
    },
    {
      "inputs": [],
      "name": "getAllDefaultCharacters",
      "outputs": [
        {
          "components": [
            {
              "internalType": "uint256",
              "name": "characterIndex",
              "type": "uint256"
            },
            {
              "internalType": "string",
              "name": "name",
              "type": "string"
            },
            {
              "internalType": "string",
              "name": "imageURI",
              "type": "string"
            },
            {
              "internalType": "uint256",
              "name": "hp",
              "type": "uint256"
            },
            {
              "internalType": "uint256",
              "name": "maxHp",
              "type": "uint256"
            },
            {
              "internalType": "uint256",
              "name": "attackDamage",
              "type": "uint256"
            }
          ],
          "internalType": "struct MyNFTGame.CharacterAttributes[]",
          "name": "",
          "type": "tuple[]"
        }
      ],
      "stateMutability": "view",
      "type": "function"
    },
    {
      "inputs": [
        {
          "internalType": "uint256",
          "name": "tokenId",
          "type": "uint256"
        }
      ],
      "name": "getApproved",
      "outputs": [
        {
          "internalType": "address",
          "name": "",
          "type": "address"
        }
      ],
      "stateMutability": "view",
      "type": "function"
    },
    {
      "inputs": [],
      "name": "getBigBoss",
      "outputs": [
        {
          "components": [
            {
              "internalType": "string",
              "name": "name",
              "type": "string"
            },
            {
              "internalType": "string",
              "name": "imageURI",
              "type": "string"
            },
            {
              "internalType": "uint256",
              "name": "hp",
              "type": "uint256"
            },
            {
              "internalType": "uint256",
              "name": "maxHp",
              "type": "uint256"
            },
            {
              "internalType": "uint256",
              "name": "attackDamage",
              "type": "uint256"
            }
          ],
          "internalType": "struct MyNFTGame.BigBoss",
          "name": "",
          "type": "tuple"
        }
      ],
      "stateMutability": "view",
      "type": "function"
    },
    {
      "inputs": [
        {
          "internalType": "address",
          "name": "owner",
          "type": "address"
        },
        {
          "internalType": "address",
          "name": "operator",
          "type": "address"
        }
      ],
      "name": "isApprovedForAll",
      "outputs": [
        {
          "internalType": "bool",
          "name": "",
          "type": "bool"
        }
      ],
      "stateMutability": "view",
      "type": "function"
    },
    {
      "inputs": [
        {
          "internalType": "uint256",
          "name": "_characterIndex",
          "type": "uint256"
        }
      ],
      "name": "mintCharacter",
      "outputs": [],
      "stateMutability": "nonpayable",
      "type": "function"
    },
    {
      "inputs": [],
      "name": "name",
      "outputs": [
        {
          "internalType": "string",
          "name": "",
          "type": "string"
        }
      ],
      "stateMutability": "view",
      "type": "function"
    },
    {
      "inputs": [
        {
          "internalType": "uint256",
          "name": "",
          "type": "uint256"
        }
      ],
      "name": "nftHolderAttributes",
      "outputs": [
        {
          "internalType": "uint256",
          "name": "characterIndex",
          "type": "uint256"
        },
        {
          "internalType": "string",
          "name": "name",
          "type": "string"
        },
        {
          "internalType": "string",
          "name": "imageURI",
          "type": "string"
        },
        {
          "internalType": "uint256",
          "name": "hp",
          "type": "uint256"
        },
        {
          "internalType": "uint256",
          "name": "maxHp",
          "type": "uint256"
        },
        {
          "internalType": "uint256",
          "name": "attackDamage",
          "type": "uint256"
        }
      ],
      "stateMutability": "view",
      "type": "function"
    },
    {
      "inputs": [
        {
          "internalType": "address",
          "name": "",
          "type": "address"
        }
      ],
      "name": "nftHolders",
      "outputs": [
        {
          "internalType": "uint256",
          "name": "",
          "type": "uint256"
        }
      ],
      "stateMutability": "view",
      "type": "function"
    },
    {
      "inputs": [
        {
          "internalType": "uint256",
          "name": "tokenId",
          "type": "uint256"
        }
      ],
      "name": "ownerOf",
      "outputs": [
        {
          "internalType": "address",
          "name": "",
          "type": "address"
        }
      ],
      "stateMutability": "view",
      "type": "function"
    },
    {
      "inputs": [
        {
          "internalType": "address",
          "name": "from",
          "type": "address"
        },
        {
          "internalType": "address",
          "name": "to",
          "type": "address"
        },
        {
          "internalType": "uint256",
          "name": "tokenId",
          "type": "uint256"
        }
      ],
      "name": "safeTransferFrom",
      "outputs": [],
      "stateMutability": "nonpayable",
      "type": "function"
    },
    {
      "inputs": [
        {
          "internalType": "address",
          "name": "from",
          "type": "address"
        },
        {
          "internalType": "address",
          "name": "to",
          "type": "address"
        },
        {
          "internalType": "uint256",
          "name": "tokenId",
          "type": "uint256"
        },
        {
          "internalType": "bytes",
          "name": "_data",
          "type": "bytes"
        }
      ],
      "name": "safeTransferFrom",
      "outputs": [],
      "stateMutability": "nonpayable",
      "type": "function"
    },
    {
      "inputs": [
        {
          "internalType": "address",
          "name": "operator",
          "type": "address"
        },
        {
          "internalType": "bool",
          "name": "approved",
          "type": "bool"
        }
      ],
      "name": "setApprovalForAll",
      "outputs": [],
      "stateMutability": "nonpayable",
      "type": "function"
    },
    {
      "inputs": [
        {
          "internalType": "bytes4",
          "name": "interfaceId",
          "type": "bytes4"
        }
      ],
      "name": "supportsInterface",
      "outputs": [
        {
          "internalType": "bool",
          "name": "",
          "type": "bool"
        }
      ],
      "stateMutability": "view",
      "type": "function"
    },
    {
      "inputs": [],
      "name": "symbol",
      "outputs": [
        {
          "internalType": "string",
          "name": "",
          "type": "string"
        }
      ],
      "stateMutability": "view",
      "type": "function"
    },
    {
      "inputs": [
        {
          "internalType": "uint256",
          "name": "_tokenId",
          "type": "uint256"
        }
      ],
      "name": "tokenURI",
      "outputs": [
        {
          "internalType": "string",
          "name": "",
          "type": "string"
        }
      ],
      "stateMutability": "view",
      "type": "function"
    },
    {
      "inputs": [
        {
          "internalType": "address",
          "name": "from",
          "type": "address"
        },
        {
          "internalType": "address",
          "name": "to",
          "type": "address"
        },
        {
          "internalType": "uint256",
          "name": "tokenId",
          "type": "uint256"
        }
      ],
      "name": "transferFrom",
      "outputs": [],
      "stateMutability": "nonpayable",
      "type": "function"
    }
  ],
  "bytecode": "0x60806040523480156200001157600080fd5b506040516200589638038062005896833981810160405281019062000037919062000b2c565b6040518060400160405280600b81526020017f4d6172696f2056657273650000000000000000000000000000000000000000008152506040518060400160405280600381526020017f4d525600000000000000000000000000000000000000000000000000000000008152508160009080519060200190620000bb929190620008bf565b508060019080519060200190620000d4929190620008bf565b5050506200010660405180606001604052806036815260200162005811603691396200073160201b62001d401760201c565b60005b8851811015620005225760076040518060c001604052808381526020018b848151811062000160577f4e487b7100000000000000000000000000000000000000000000000000000000600052603260045260246000fd5b602002602001015181526020018a8481518110620001a7577f4e487b7100000000000000000000000000000000000000000000000000000000600052603260045260246000fd5b60200260200101518152602001898481518110620001ee577f4e487b7100000000000000000000000000000000000000000000000000000000600052603260045260246000fd5b6020026020010151815260200189848151811062000235577f4e487b7100000000000000000000000000000000000000000000000000000000600052603260045260246000fd5b602002602001015181526020018884815181106200027c577f4e487b7100000000000000000000000000000000000000000000000000000000600052603260045260246000fd5b60200260200101518152509080600181540180825580915050600190039060005260206000209060060201600090919091909150600082015181600001556020820151816001019080519060200190620002d8929190620008bf565b506040820151816002019080519060200190620002f7929190620008bf565b50606082015181600301556080820151816004015560a08201518160050155505060006007828154811062000355577f4e487b7100000000000000000000000000000000000000000000000000000000600052603260045260246000fd5b90600052602060002090600602016040518060c0016040529081600082015481526020016001820180546200038a9062000edb565b80601f0160208091040260200160405190810160405280929190818152602001828054620003b89062000edb565b8015620004095780601f10620003dd5761010080835404028352916020019162000409565b820191906000526020600020905b815481529060010190602001808311620003eb57829003601f168201915b50505050508152602001600282018054620004249062000edb565b80601f0160208091040260200160405190810160405280929190818152602001828054620004529062000edb565b8015620004a35780601f106200047757610100808354040283529160200191620004a3565b820191906000526020600020905b8154815290600101906020018083116200048557829003601f168201915b50505050508152602001600382015481526020016004820154815260200160058201548152505090506200050a6040518060600160405280602581526020016200584760259139826020015183606001518460400151620007d460201b62001dd91760201c565b506001816200051a919062000e3e565b905062000109565b506040518060a0016040528085815260200184815260200183815260200183815260200182815250600860008201518160000190805190602001906200056a929190620008bf565b50602082015181600101908051906020019062000589929190620008bf565b506040820151816002015560608201518160030155608082015181600401559050506200070c6040518060600160405280602a81526020016200586c602a913960086000018054620005db9062000edb565b80601f0160208091040260200160405190810160405280929190818152602001828054620006099062000edb565b80156200065a5780601f106200062e576101008083540402835291602001916200065a565b820191906000526020600020905b8154815290600101906020018083116200063c57829003601f168201915b505050505060086002015460086001018054620006779062000edb565b80601f0160208091040260200160405190810160405280929190818152602001828054620006a59062000edb565b8015620006f65780601f10620006ca57610100808354040283529160200191620006f6565b820191906000526020600020905b815481529060010190602001808311620006d857829003601f168201915b5050505050620007d460201b62001dd91760201c565b6200072360066200088060201b62001e7b1760201c565b505050505050505062000fc9565b620007d18160405160240162000748919062000cd7565b6040516020818303038152906040527f41304fac000000000000000000000000000000000000000000000000000000007bffffffffffffffffffffffffffffffffffffffffffffffffffffffff19166020820180517bffffffffffffffffffffffffffffffffffffffffffffffffffffffff83818316178352505050506200089660201b60201c565b50565b6200087a84848484604051602401620007f1949392919062000cfb565b6040516020818303038152906040527f8d142cdd000000000000000000000000000000000000000000000000000000007bffffffffffffffffffffffffffffffffffffffffffffffffffffffff19166020820180517bffffffffffffffffffffffffffffffffffffffffffffffffffffffff83818316178352505050506200089660201b60201c565b50505050565b6001816000016000828254019250508190555050565b60008151905060006a636f6e736f6c652e6c6f679050602083016000808483855afa5050505050565b828054620008cd9062000edb565b90600052602060002090601f016020900481019282620008f157600085556200093d565b82601f106200090c57805160ff19168380011785556200093d565b828001600101855582156200093d579182015b828111156200093c5782518255916020019190600101906200091f565b5b5090506200094c919062000950565b5090565b5b808211156200096b57600081600090555060010162000951565b5090565b600062000986620009808462000d91565b62000d5d565b9050808382526020820190508260005b85811015620009ca5781518501620009af888262000ae8565b84526020840193506020830192505060018101905062000996565b5050509392505050565b6000620009eb620009e58462000dc0565b62000d5d565b9050808382526020820190508285602086028201111562000a0b57600080fd5b60005b8581101562000a3f578162000a24888262000b15565b84526020840193506020830192505060018101905062000a0e565b5050509392505050565b600062000a6062000a5a8462000def565b62000d5d565b90508281526020810184848401111562000a7957600080fd5b62000a8684828562000ea5565b509392505050565b600082601f83011262000aa057600080fd5b815162000ab28482602086016200096f565b91505092915050565b600082601f83011262000acd57600080fd5b815162000adf848260208601620009d4565b91505092915050565b600082601f83011262000afa57600080fd5b815162000b0c84826020860162000a49565b91505092915050565b60008151905062000b268162000faf565b92915050565b600080600080600080600080610100898b03121562000b4a57600080fd5b600089015167ffffffffffffffff81111562000b6557600080fd5b62000b738b828c0162000a8e565b985050602089015167ffffffffffffffff81111562000b9157600080fd5b62000b9f8b828c0162000a8e565b975050604089015167ffffffffffffffff81111562000bbd57600080fd5b62000bcb8b828c0162000abb565b965050606089015167ffffffffffffffff81111562000be957600080fd5b62000bf78b828c0162000abb565b955050608089015167ffffffffffffffff81111562000c1557600080fd5b62000c238b828c0162000ae8565b94505060a089015167ffffffffffffffff81111562000c4157600080fd5b62000c4f8b828c0162000ae8565b93505060c062000c628b828c0162000b15565b92505060e062000c758b828c0162000b15565b9150509295985092959890939650565b600062000c928262000e22565b62000c9e818562000e2d565b935062000cb081856020860162000ea5565b62000cbb8162000f9e565b840191505092915050565b62000cd18162000e9b565b82525050565b6000602082019050818103600083015262000cf3818462000c85565b905092915050565b6000608082019050818103600083015262000d17818762000c85565b9050818103602083015262000d2d818662000c85565b905062000d3e604083018562000cc6565b818103606083015262000d52818462000c85565b905095945050505050565b6000604051905081810181811067ffffffffffffffff8211171562000d875762000d8662000f6f565b5b8060405250919050565b600067ffffffffffffffff82111562000daf5762000dae62000f6f565b5b602082029050602081019050919050565b600067ffffffffffffffff82111562000dde5762000ddd62000f6f565b5b602082029050602081019050919050565b600067ffffffffffffffff82111562000e0d5762000e0c62000f6f565b5b601f19601f8301169050602081019050919050565b600081519050919050565b600082825260208201905092915050565b600062000e4b8262000e9b565b915062000e588362000e9b565b9250827fffffffffffffffffffffffffffffffffffffffffffffffffffffffffffffffff0382111562000e905762000e8f62000f11565b5b828201905092915050565b6000819050919050565b60005b8381101562000ec557808201518184015260208101905062000ea8565b8381111562000ed5576000848401525b50505050565b6000600282049050600182168062000ef457607f821691505b6020821081141562000f0b5762000f0a62000f40565b5b50919050565b7f4e487b7100000000000000000000000000000000000000000000000000000000600052601160045260246000fd5b7f4e487b7100000000000000000000000000000000000000000000000000000000600052602260045260246000fd5b7f4e487b7100000000000000000000000000000000000000000000000000000000600052604160045260246000fd5b6000601f19601f8301169050919050565b62000fba8162000e9b565b811462000fc657600080fd5b50565b6148388062000fd96000396000f3fe608060405234801561001057600080fd5b50600436106101375760003560e01c80637df124a1116100b8578063b88d4fde1161007c578063b88d4fde1461036b578063b953084e14610387578063c87b56dd146103a5578063d4f24c5b146103d5578063e90eb7dc146103df578063e985e9c5146103fb57610137565b80637df124a1146102aa57806395d89b41146102da57806398da4c95146102f8578063a22cb4651461032d578063a9c326791461034957610137565b806323b872dd116100ff57806323b872dd146101f457806342842e0e1461021057806344acb9781461022c5780636352211e1461024a57806370a082311461027a57610137565b806301ffc9a71461013c5780630665f9611461016c57806306fdde031461018a578063081812fc146101a8578063095ea7b3146101d8575b600080fd5b610156600480360381019061015191906130b3565b61042b565b6040516101639190613ded565b60405180910390f35b61017461050d565b6040516101819190614186565b60405180910390f35b610192610669565b60405161019f9190613e08565b60405180910390f35b6101c260048036038101906101bd9190613105565b6106fb565b6040516101cf9190613d2d565b60405180910390f35b6101f260048036038101906101ed9190613077565b610780565b005b61020e60048036038101906102099190612f71565b610898565b005b61022a60048036038101906102259190612f71565b6108f8565b005b610234610918565b60405161024191906141a8565b60405180910390f35b610264600480360381019061025f9190613105565b610af0565b6040516102719190613d2d565b60405180910390f35b610294600480360381019061028f9190612f0c565b610ba2565b6040516102a191906141ca565b60405180910390f35b6102c460048036038101906102bf9190612f0c565b610c5a565b6040516102d191906141ca565b60405180910390f35b6102e2610c72565b6040516102ef9190613e08565b60405180910390f35b610312600480360381019061030d9190613105565b610d04565b604051610324969594939291906141e5565b60405180910390f35b6103476004803603810190610342919061303b565b610e50565b005b610351610fd1565b604051610362959493929190613ed7565b60405180910390f35b61038560048036038101906103809190612fc0565b611105565b005b61038f611167565b60405161039c9190613dcb565b60405180910390f35b6103bf60048036038101906103ba9190613105565b611312565b6040516103cc9190613e08565b60405180910390f35b6103dd61152d565b005b6103f960048036038101906103f49190613105565b6118b8565b005b61041560048036038101906104109190612f35565b611cac565b6040516104229190613ded565b60405180910390f35b60007f80ac58cd000000000000000000000000000000000000000000000000000000007bffffffffffffffffffffffffffffffffffffffffffffffffffffffff1916827bffffffffffffffffffffffffffffffffffffffffffffffffffffffff191614806104f657507f5b5e139f000000000000000000000000000000000000000000000000000000007bffffffffffffffffffffffffffffffffffffffffffffffffffffffff1916827bffffffffffffffffffffffffffffffffffffffffffffffffffffffff1916145b80610506575061050582611e91565b5b9050919050565b610515612d33565b60086040518060a001604052908160008201805461053290614536565b80601f016020809104026020016040519081016040528092919081815260200182805461055e90614536565b80156105ab5780601f10610580576101008083540402835291602001916105ab565b820191906000526020600020905b81548152906001019060200180831161058e57829003601f168201915b505050505081526020016001820180546105c490614536565b80601f01602080910402602001604051908101604052809291908181526020018280546105f090614536565b801561063d5780601f106106125761010080835404028352916020019161063d565b820191906000526020600020905b81548152906001019060200180831161062057829003601f168201915b505050505081526020016002820154815260200160038201548152602001600482015481525050905090565b60606000805461067890614536565b80601f01602080910402602001604051908101604052809291908181526020018280546106a490614536565b80156106f15780601f106106c6576101008083540402835291602001916106f1565b820191906000526020600020905b8154815290600101906020018083116106d457829003601f168201915b5050505050905090565b600061070682611efb565b610745576040517f08c379a000000000000000000000000000000000000000000000000000000000815260040161073c906140e6565b60405180910390fd5b6004600083815260200190815260200160002060009054906101000a900473ffffffffffffffffffffffffffffffffffffffff169050919050565b600061078b82610af0565b90508073ffffffffffffffffffffffffffffffffffffffff168373ffffffffffffffffffffffffffffffffffffffff1614156107fc576040517f08c379a00000000000000000000000000000000000000000000000000000000081526004016107f390614126565b60405180910390fd5b8073ffffffffffffffffffffffffffffffffffffffff1661081b611f67565b73ffffffffffffffffffffffffffffffffffffffff16148061084a575061084981610844611f67565b611cac565b5b610889576040517f08c379a000000000000000000000000000000000000000000000000000000000815260040161088090614066565b60405180910390fd5b6108938383611f6f565b505050565b6108a96108a3611f67565b82612028565b6108e8576040517f08c379a00000000000000000000000000000000000000000000000000000000081526004016108df90614166565b60405180910390fd5b6108f3838383612106565b505050565b61091383838360405180602001604052806000815250611105565b505050565b610920612d62565b6000600e60003373ffffffffffffffffffffffffffffffffffffffff1673ffffffffffffffffffffffffffffffffffffffff1681526020019081526020016000205490506000811115610adf57600d60008281526020019081526020016000206040518060c0016040529081600082015481526020016001820180546109a590614536565b80601f01602080910402602001604051908101604052809291908181526020018280546109d190614536565b8015610a1e5780601f106109f357610100808354040283529160200191610a1e565b820191906000526020600020905b815481529060010190602001808311610a0157829003601f168201915b50505050508152602001600282018054610a3790614536565b80601f0160208091040260200160405190810160405280929190818152602001828054610a6390614536565b8015610ab05780601f10610a8557610100808354040283529160200191610ab0565b820191906000526020600020905b815481529060010190602001808311610a9357829003601f168201915b505050505081526020016003820154815260200160048201548152602001600582015481525050915050610aed565b610ae7612d62565b80925050505b90565b6000806002600084815260200190815260200160002060009054906101000a900473ffffffffffffffffffffffffffffffffffffffff169050600073ffffffffffffffffffffffffffffffffffffffff168173ffffffffffffffffffffffffffffffffffffffff161415610b99576040517f08c379a0000000000000000000000000000000000000000000000000000000008152600401610b90906140a6565b60405180910390fd5b80915050919050565b60008073ffffffffffffffffffffffffffffffffffffffff168273ffffffffffffffffffffffffffffffffffffffff161415610c13576040517f08c379a0000000000000000000000000000000000000000000000000000000008152600401610c0a90614086565b60405180910390fd5b600360008373ffffffffffffffffffffffffffffffffffffffff1673ffffffffffffffffffffffffffffffffffffffff168152602001908152602001600020549050919050565b600e6020528060005260406000206000915090505481565b606060018054610c8190614536565b80601f0160208091040260200160405190810160405280929190818152602001828054610cad90614536565b8015610cfa5780601f10610ccf57610100808354040283529160200191610cfa565b820191906000526020600020905b815481529060010190602001808311610cdd57829003601f168201915b5050505050905090565b600d602052806000526040600020600091509050806000015490806001018054610d2d90614536565b80601f0160208091040260200160405190810160405280929190818152602001828054610d5990614536565b8015610da65780601f10610d7b57610100808354040283529160200191610da6565b820191906000526020600020905b815481529060010190602001808311610d8957829003601f168201915b505050505090806002018054610dbb90614536565b80601f0160208091040260200160405190810160405280929190818152602001828054610de790614536565b8015610e345780601f10610e0957610100808354040283529160200191610e34565b820191906000526020600020905b815481529060010190602001808311610e1757829003601f168201915b5050505050908060030154908060040154908060050154905086565b610e58611f67565b73ffffffffffffffffffffffffffffffffffffffff168273ffffffffffffffffffffffffffffffffffffffff161415610ec6576040517f08c379a0000000000000000000000000000000000000000000000000000000008152600401610ebd90614026565b60405180910390fd5b8060056000610ed3611f67565b73ffffffffffffffffffffffffffffffffffffffff1673ffffffffffffffffffffffffffffffffffffffff16815260200190815260200160002060008473ffffffffffffffffffffffffffffffffffffffff1673ffffffffffffffffffffffffffffffffffffffff16815260200190815260200160002060006101000a81548160ff0219169083151502179055508173ffffffffffffffffffffffffffffffffffffffff16610f80611f67565b73ffffffffffffffffffffffffffffffffffffffff167f17307eab39ab6107e8899845ad3d59bd9653f200f220920489ca2b5937696c3183604051610fc59190613ded565b60405180910390a35050565b6008806000018054610fe290614536565b80601f016020809104026020016040519081016040528092919081815260200182805461100e90614536565b801561105b5780601f106110305761010080835404028352916020019161105b565b820191906000526020600020905b81548152906001019060200180831161103e57829003601f168201915b50505050509080600101805461107090614536565b80601f016020809104026020016040519081016040528092919081815260200182805461109c90614536565b80156110e95780601f106110be576101008083540402835291602001916110e9565b820191906000526020600020905b8154815290600101906020018083116110cc57829003601f168201915b5050505050908060020154908060030154908060040154905085565b611116611110611f67565b83612028565b611155576040517f08c379a000000000000000000000000000000000000000000000000000000000815260040161114c90614166565b60405180910390fd5b61116184848484612362565b50505050565b60606007805480602002602001604051908101604052809291908181526020016000905b8282101561130957838290600052602060002090600602016040518060c0016040529081600082015481526020016001820180546111c890614536565b80601f01602080910402602001604051908101604052809291908181526020018280546111f490614536565b80156112415780601f1061121657610100808354040283529160200191611241565b820191906000526020600020905b81548152906001019060200180831161122457829003601f168201915b5050505050815260200160028201805461125a90614536565b80601f016020809104026020016040519081016040528092919081815260200182805461128690614536565b80156112d35780601f106112a8576101008083540402835291602001916112d3565b820191906000526020600020905b8154815290600101906020018083116112b657829003601f168201915b5050505050815260200160038201548152602001600482015481526020016005820154815250508152602001906001019061118b565b50505050905090565b60606000600d60008481526020019081526020016000206040518060c00160405290816000820154815260200160018201805461134e90614536565b80601f016020809104026020016040519081016040528092919081815260200182805461137a90614536565b80156113c75780601f1061139c576101008083540402835291602001916113c7565b820191906000526020600020905b8154815290600101906020018083116113aa57829003601f168201915b505050505081526020016002820180546113e090614536565b80601f016020809104026020016040519081016040528092919081815260200182805461140c90614536565b80156114595780601f1061142e57610100808354040283529160200191611459565b820191906000526020600020905b81548152906001019060200180831161143c57829003601f168201915b5050505050815260200160038201548152602001600482015481526020016005820154815250509050600061149182606001516123be565b905060006114a283608001516123be565b905060006114b38460a001516123be565b905060006114f985602001516114c8896123be565b87604001518787876040516020016114e596959493929190613c66565b60405160208183030381529060405261256b565b905060008160405160200161150e9190613d0b565b6040516020818303038152906040529050809650505050505050919050565b6000600e60003373ffffffffffffffffffffffffffffffffffffffff1673ffffffffffffffffffffffffffffffffffffffff1681526020019081526020016000205490506000600d600083815260200190815260200160002090506116406040518060600160405280603c81526020016147c7603c91398260010180546115b390614536565b80601f01602080910402602001604051908101604052809291908181526020018280546115df90614536565b801561162c5780601f106116015761010080835404028352916020019161162c565b820191906000526020600020905b81548152906001019060200180831161160f57829003601f168201915b505050505083600301548460050154612729565b6117186040518060400160405280601b81526020017f426f73732025732068617320257320485020616e6420257320414400000000008152506008600001805461168990614536565b80601f01602080910402602001604051908101604052809291908181526020018280546116b590614536565b80156117025780601f106116d757610100808354040283529160200191611702565b820191906000526020600020905b8154815290600101906020018083116116e557829003601f168201915b5050505050600860020154600860040154612729565b600081600301541161175f576040517f08c379a000000000000000000000000000000000000000000000000000000000815260040161175690613fe6565b60405180910390fd5b6000600860020154116117a7576040517f08c379a000000000000000000000000000000000000000000000000000000000815260040161179e90614146565b60405180910390fd5b806005015460086002015410156117c85760006008600201819055506117e7565b80600501546008600201546117dd919061444c565b6008600201819055505b600860040154816003015410156118075760008160030181905550611825565b600860040154816003015461181c919061444c565b81600301819055505b7f838ab28464562786a6c4ab2311964b82fa60bd9b14aa7e856af1f3f18d41a414600860020154826003015460405161185f929190614254565b60405180910390a161188e60405180606001604052806025815260200161470c602591396008600201546127cb565b6118b46040518060600160405280602881526020016147716028913982600301546127cb565b5050565b60006118c46006612867565b90506118d03382612875565b6040518060c001604052808381526020016007848154811061191b577f4e487b7100000000000000000000000000000000000000000000000000000000600052603260045260246000fd5b9060005260206000209060060201600101805461193790614536565b80601f016020809104026020016040519081016040528092919081815260200182805461196390614536565b80156119b05780601f10611985576101008083540402835291602001916119b0565b820191906000526020600020905b81548152906001019060200180831161199357829003601f168201915b50505050508152602001600784815481106119f4577f4e487b7100000000000000000000000000000000000000000000000000000000600052603260045260246000fd5b90600052602060002090600602016002018054611a1090614536565b80601f0160208091040260200160405190810160405280929190818152602001828054611a3c90614536565b8015611a895780601f10611a5e57610100808354040283529160200191611a89565b820191906000526020600020905b815481529060010190602001808311611a6c57829003601f168201915b5050505050815260200160078481548110611acd577f4e487b7100000000000000000000000000000000000000000000000000000000600052603260045260246000fd5b906000526020600020906006020160030154815260200160078481548110611b1e577f4e487b7100000000000000000000000000000000000000000000000000000000600052603260045260246000fd5b906000526020600020906006020160040154815260200160078481548110611b6f577f4e487b7100000000000000000000000000000000000000000000000000000000600052603260045260246000fd5b906000526020600020906006020160050154815250600d6000838152602001908152602001600020600082015181600001556020820151816001019080519060200190611bbd929190612d98565b506040820151816002019080519060200190611bda929190612d98565b50606082015181600301556080820151816004015560a08201518160050155905050611c1f6040518060600160405280602e8152602001614799602e91398284612893565b80600e60003373ffffffffffffffffffffffffffffffffffffffff1673ffffffffffffffffffffffffffffffffffffffff16815260200190815260200160002081905550611c6d6006611e7b565b7f4bc303fd457a97b4691b9af582ce71868a3d258638c8d4f8c60988a0f0bfb8cd338284604051611ca093929190613d94565b60405180910390a15050565b6000600560008473ffffffffffffffffffffffffffffffffffffffff1673ffffffffffffffffffffffffffffffffffffffff16815260200190815260200160002060008373ffffffffffffffffffffffffffffffffffffffff1673ffffffffffffffffffffffffffffffffffffffff16815260200190815260200160002060009054906101000a900460ff16905092915050565b611dd681604051602401611d549190613e08565b6040516020818303038152906040527f41304fac000000000000000000000000000000000000000000000000000000007bffffffffffffffffffffffffffffffffffffffffffffffffffffffff19166020820180517bffffffffffffffffffffffffffffffffffffffffffffffffffffffff8381831617835250505050612932565b50565b611e7584848484604051602401611df39493929190613e2a565b6040516020818303038152906040527f8d142cdd000000000000000000000000000000000000000000000000000000007bffffffffffffffffffffffffffffffffffffffffffffffffffffffff19166020820180517bffffffffffffffffffffffffffffffffffffffffffffffffffffffff8381831617835250505050612932565b50505050565b6001816000016000828254019250508190555050565b60007f01ffc9a7000000000000000000000000000000000000000000000000000000007bffffffffffffffffffffffffffffffffffffffffffffffffffffffff1916827bffffffffffffffffffffffffffffffffffffffffffffffffffffffff1916149050919050565b60008073ffffffffffffffffffffffffffffffffffffffff166002600084815260200190815260200160002060009054906101000a900473ffffffffffffffffffffffffffffffffffffffff1673ffffffffffffffffffffffffffffffffffffffff1614159050919050565b600033905090565b816004600083815260200190815260200160002060006101000a81548173ffffffffffffffffffffffffffffffffffffffff021916908373ffffffffffffffffffffffffffffffffffffffff160217905550808273ffffffffffffffffffffffffffffffffffffffff16611fe283610af0565b73ffffffffffffffffffffffffffffffffffffffff167f8c5be1e5ebec7d5bd14f71427d1e84f3dd0314c0f7b2291e5b200ac8c7c3b92560405160405180910390a45050565b600061203382611efb565b612072576040517f08c379a000000000000000000000000000000000000000000000000000000000815260040161206990614046565b60405180910390fd5b600061207d83610af0565b90508073ffffffffffffffffffffffffffffffffffffffff168473ffffffffffffffffffffffffffffffffffffffff1614806120ec57508373ffffffffffffffffffffffffffffffffffffffff166120d4846106fb565b73ffffffffffffffffffffffffffffffffffffffff16145b806120fd57506120fc8185611cac565b5b91505092915050565b8273ffffffffffffffffffffffffffffffffffffffff1661212682610af0565b73ffffffffffffffffffffffffffffffffffffffff161461217c576040517f08c379a000000000000000000000000000000000000000000000000000000000815260040161217390614106565b60405180910390fd5b600073ffffffffffffffffffffffffffffffffffffffff168273ffffffffffffffffffffffffffffffffffffffff1614156121ec576040517f08c379a00000000000000000000000000000000000000000000000000000000081526004016121e390614006565b60405180910390fd5b6121f783838361295b565b612202600082611f6f565b6001600360008573ffffffffffffffffffffffffffffffffffffffff1673ffffffffffffffffffffffffffffffffffffffff1681526020019081526020016000206000828254612252919061444c565b925050819055506001600360008473ffffffffffffffffffffffffffffffffffffffff1673ffffffffffffffffffffffffffffffffffffffff16815260200190815260200160002060008282546122a9919061436b565b92505081905550816002600083815260200190815260200160002060006101000a81548173ffffffffffffffffffffffffffffffffffffffff021916908373ffffffffffffffffffffffffffffffffffffffff160217905550808273ffffffffffffffffffffffffffffffffffffffff168473ffffffffffffffffffffffffffffffffffffffff167fddf252ad1be2c89b69c2b068fc378daa952ba7f163c4a11628f55a4df523b3ef60405160405180910390a4505050565b61236d848484612106565b61237984848484612960565b6123b8576040517f08c379a00000000000000000000000000000000000000000000000000000000081526004016123af90613fa6565b60405180910390fd5b50505050565b60606000821415612406576040518060400160405280600181526020017f30000000000000000000000000000000000000000000000000000000000000008152509050612566565b600082905060005b6000821461243857808061242190614568565b915050600a8261243191906143c1565b915061240e565b60008167ffffffffffffffff81111561247a577f4e487b7100000000000000000000000000000000000000000000000000000000600052604160045260246000fd5b6040519080825280601f01601f1916602001820160405280156124ac5781602001600182028036833780820191505090505b5090505b6000851461255f576001826124c5919061444c565b9150600a856124d491906145b1565b60306124e0919061436b565b60f81b81838151811061251c577f4e487b7100000000000000000000000000000000000000000000000000000000600052603260045260246000fd5b60200101907effffffffffffffffffffffffffffffffffffffffffffffffffffffffffffff1916908160001a905350600a8561255891906143c1565b94506124b0565b8093505050505b919050565b606060008251905060008114156125945760405180602001604052806000815250915050612724565b600060036002836125a5919061436b565b6125af91906143c1565b60046125bb91906143f2565b905060006020826125cc919061436b565b67ffffffffffffffff81111561260b577f4e487b7100000000000000000000000000000000000000000000000000000000600052604160045260246000fd5b6040519080825280601f01601f19166020018201604052801561263d5781602001600182028036833780820191505090505b5090506000604051806060016040528060408152602001614731604091399050600181016020830160005b868110156126e15760038101905062ffffff818a015116603f8160121c168401518060081b905060ff603f83600c1c1686015116810190508060081b905060ff603f8360061c1686015116810190508060081b905060ff603f831686015116810190508060e01b90508084526004840193505050612668565b5060038606600181146126fb576002811461270b57612716565b613d3d60f01b6002830352612716565b603d60f81b60018303525b508484525050819450505050505b919050565b6127c5848484846040516024016127439493929190613e84565b6040516020818303038152906040527fd5cf17d0000000000000000000000000000000000000000000000000000000007bffffffffffffffffffffffffffffffffffffffffffffffffffffffff19166020820180517bffffffffffffffffffffffffffffffffffffffffffffffffffffffff8381831617835250505050612932565b50505050565b61286382826040516024016127e1929190613f38565b6040516020818303038152906040527f9710a9d0000000000000000000000000000000000000000000000000000000007bffffffffffffffffffffffffffffffffffffffffffffffffffffffff19166020820180517bffffffffffffffffffffffffffffffffffffffffffffffffffffffff8381831617835250505050612932565b5050565b600081600001549050919050565b61288f828260405180602001604052806000815250612af7565b5050565b61292d8383836040516024016128ab93929190613f68565b6040516020818303038152906040527f969cdd03000000000000000000000000000000000000000000000000000000007bffffffffffffffffffffffffffffffffffffffffffffffffffffffff19166020820180517bffffffffffffffffffffffffffffffffffffffffffffffffffffffff8381831617835250505050612932565b505050565b60008151905060006a636f6e736f6c652e6c6f679050602083016000808483855afa5050505050565b505050565b60006129818473ffffffffffffffffffffffffffffffffffffffff16612b52565b15612aea578373ffffffffffffffffffffffffffffffffffffffff1663150b7a026129aa611f67565b8786866040518563ffffffff1660e01b81526004016129cc9493929190613d48565b602060405180830381600087803b1580156129e657600080fd5b505af1925050508015612a1757506040513d601f19601f82011682018060405250810190612a1491906130dc565b60015b612a9a573d8060008114612a47576040519150601f19603f3d011682016040523d82523d6000602084013e612a4c565b606091505b50600081511415612a92576040517f08c379a0000000000000000000000000000000000000000000000000000000008152600401612a8990613fa6565b60405180910390fd5b805181602001fd5b63150b7a0260e01b7bffffffffffffffffffffffffffffffffffffffffffffffffffffffff1916817bffffffffffffffffffffffffffffffffffffffffffffffffffffffff191614915050612aef565b600190505b949350505050565b612b018383612b65565b612b0e6000848484612960565b612b4d576040517f08c379a0000000000000000000000000000000000000000000000000000000008152600401612b4490613fa6565b60405180910390fd5b505050565b600080823b905060008111915050919050565b600073ffffffffffffffffffffffffffffffffffffffff168273ffffffffffffffffffffffffffffffffffffffff161415612bd5576040517f08c379a0000000000000000000000000000000000000000000000000000000008152600401612bcc906140c6565b60405180910390fd5b612bde81611efb565b15612c1e576040517f08c379a0000000000000000000000000000000000000000000000000000000008152600401612c1590613fc6565b60405180910390fd5b612c2a6000838361295b565b6001600360008473ffffffffffffffffffffffffffffffffffffffff1673ffffffffffffffffffffffffffffffffffffffff1681526020019081526020016000206000828254612c7a919061436b565b92505081905550816002600083815260200190815260200160002060006101000a81548173ffffffffffffffffffffffffffffffffffffffff021916908373ffffffffffffffffffffffffffffffffffffffff160217905550808273ffffffffffffffffffffffffffffffffffffffff16600073ffffffffffffffffffffffffffffffffffffffff167fddf252ad1be2c89b69c2b068fc378daa952ba7f163c4a11628f55a4df523b3ef60405160405180910390a45050565b6040518060a0016040528060608152602001606081526020016000815260200160008152602001600081525090565b6040518060c001604052806000815260200160608152602001606081526020016000815260200160008152602001600081525090565b828054612da490614536565b90600052602060002090601f016020900481019282612dc65760008555612e0d565b82601f10612ddf57805160ff1916838001178555612e0d565b82800160010185558215612e0d579182015b82811115612e0c578251825591602001919060010190612df1565b5b509050612e1a9190612e1e565b5090565b5b80821115612e37576000816000905550600101612e1f565b5090565b6000612e4e612e49846142ae565b61427d565b905082815260208101848484011115612e6657600080fd5b612e718482856144f4565b509392505050565b600081359050612e88816146af565b92915050565b600081359050612e9d816146c6565b92915050565b600081359050612eb2816146dd565b92915050565b600081519050612ec7816146dd565b92915050565b600082601f830112612ede57600080fd5b8135612eee848260208601612e3b565b91505092915050565b600081359050612f06816146f4565b92915050565b600060208284031215612f1e57600080fd5b6000612f2c84828501612e79565b91505092915050565b60008060408385031215612f4857600080fd5b6000612f5685828601612e79565b9250506020612f6785828601612e79565b9150509250929050565b600080600060608486031215612f8657600080fd5b6000612f9486828701612e79565b9350506020612fa586828701612e79565b9250506040612fb686828701612ef7565b9150509250925092565b60008060008060808587031215612fd657600080fd5b6000612fe487828801612e79565b9450506020612ff587828801612e79565b935050604061300687828801612ef7565b925050606085013567ffffffffffffffff81111561302357600080fd5b61302f87828801612ecd565b91505092959194509250565b6000806040838503121561304e57600080fd5b600061305c85828601612e79565b925050602061306d85828601612e8e565b9150509250929050565b6000806040838503121561308a57600080fd5b600061309885828601612e79565b92505060206130a985828601612ef7565b9150509250929050565b6000602082840312156130c557600080fd5b60006130d384828501612ea3565b91505092915050565b6000602082840312156130ee57600080fd5b60006130fc84828501612eb8565b91505092915050565b60006020828403121561311757600080fd5b600061312584828501612ef7565b91505092915050565b600061313a8383613b28565b905092915050565b61314b81614480565b82525050565b600061315c826142ee565b613166818561431c565b935083602082028501613178856142de565b8060005b858110156131b45784840389528151613195858261312e565b94506131a08361430f565b925060208a0199505060018101905061317c565b50829750879550505050505092915050565b6131cf81614492565b82525050565b60006131e0826142f9565b6131ea818561432d565b93506131fa818560208601614503565b6132038161469e565b840191505092915050565b600061321982614304565b613223818561433e565b9350613233818560208601614503565b61323c8161469e565b840191505092915050565b600061325282614304565b61325c818561434f565b935061326c818560208601614503565b6132758161469e565b840191505092915050565b600061328b82614304565b6132958185614360565b93506132a5818560208601614503565b80840191505092915050565b60006132be600b83614360565b91507f202d2d204e465420233a200000000000000000000000000000000000000000006000830152600b82019050919050565b60006132fe60328361434f565b91507f4552433732313a207472616e7366657220746f206e6f6e20455243373231526560008301527f63656976657220696d706c656d656e74657200000000000000000000000000006020830152604082019050919050565b6000613364601c8361434f565b91507f4552433732313a20746f6b656e20616c7265616479206d696e746564000000006000830152602082019050919050565b60006133a4600e83614360565b91507f2c20226d61785f76616c7565223a0000000000000000000000000000000000006000830152600e82019050919050565b60006133e460178361434f565b91507f6572726f7220706c6179657220686173206c6f772068700000000000000000006000830152602082019050919050565b600061342460248361434f565b91507f4552433732313a207472616e7366657220746f20746865207a65726f2061646460008301527f72657373000000000000000000000000000000000000000000000000000000006020830152604082019050919050565b600061348a60198361434f565b91507f4552433732313a20617070726f766520746f2063616c6c6572000000000000006000830152602082019050919050565b60006134ca602c8361434f565b91507f4552433732313a206f70657261746f7220717565727920666f72206e6f6e657860008301527f697374656e7420746f6b656e00000000000000000000000000000000000000006020830152604082019050919050565b600061353060388361434f565b91507f4552433732313a20617070726f76652063616c6c6572206973206e6f74206f7760008301527f6e6572206e6f7220617070726f76656420666f7220616c6c00000000000000006020830152604082019050919050565b6000613596602a8361434f565b91507f4552433732313a2062616c616e636520717565727920666f7220746865207a6560008301527f726f2061646472657373000000000000000000000000000000000000000000006020830152604082019050919050565b60006135fc60298361434f565b91507f4552433732313a206f776e657220717565727920666f72206e6f6e657869737460008301527f656e7420746f6b656e00000000000000000000000000000000000000000000006020830152604082019050919050565b6000613662606283614360565b91507f222c20226465736372697074696f6e223a20225468697320697320616e204e4660008301527f542074686174206c6574732070656f706c6520706c617920696e20746865206760208301527f616d65204d657461766572736520536c6179657221222c2022696d616765223a60408301527f20220000000000000000000000000000000000000000000000000000000000006060830152606282019050919050565b6000613714600483614360565b91507f7d205d7d000000000000000000000000000000000000000000000000000000006000830152600482019050919050565b600061375460208361434f565b91507f4552433732313a206d696e7420746f20746865207a65726f20616464726573736000830152602082019050919050565b6000613794602c8361434f565b91507f4552433732313a20617070726f76656420717565727920666f72206e6f6e657860008301527f697374656e7420746f6b656e00000000000000000000000000000000000000006020830152604082019050919050565b60006137fa60298361434f565b91507f4552433732313a207472616e73666572206f6620746f6b656e2074686174206960008301527f73206e6f74206f776e00000000000000000000000000000000000000000000006020830152604082019050919050565b6000613860600a83614360565b91507f7b226e616d65223a2022000000000000000000000000000000000000000000006000830152600a82019050919050565b60006138a060218361434f565b91507f4552433732313a20617070726f76616c20746f2063757272656e74206f776e6560008301527f72000000000000000000000000000000000000000000000000000000000000006020830152604082019050919050565b600061390660188361434f565b91507f6572726f722062696720626f737320686173206e6f20687000000000000000006000830152602082019050919050565b6000613946601d83614360565b91507f646174613a6170706c69636174696f6e2f6a736f6e3b6261736536342c0000006000830152601d82019050919050565b600061398660318361434f565b91507f4552433732313a207472616e736665722063616c6c6572206973206e6f74206f60008301527f776e6572206e6f7220617070726f7665640000000000000000000000000000006020830152604082019050919050565b60006139ec603d83614360565b91507f222c202261747472696275746573223a205b207b202274726169745f7479706560008301527f223a20224865616c746820506f696e7473222c202276616c7565223a200000006020830152603d82019050919050565b6000613a52602d83614360565b91507f7d2c207b202274726169745f74797065223a202241747461636b2044616d616760008301527f65222c202276616c7565223a20000000000000000000000000000000000000006020830152602d82019050919050565b600060a0830160008301518482036000860152613ac8828261320e565b91505060208301518482036020860152613ae2828261320e565b9150506040830151613af76040860182613c48565b506060830151613b0a6060860182613c48565b506080830151613b1d6080860182613c48565b508091505092915050565b600060c083016000830151613b406000860182613c48565b5060208301518482036020860152613b58828261320e565b91505060408301518482036040860152613b72828261320e565b9150506060830151613b876060860182613c48565b506080830151613b9a6080860182613c48565b5060a0830151613bad60a0860182613c48565b508091505092915050565b600060c083016000830151613bd06000860182613c48565b5060208301518482036020860152613be8828261320e565b91505060408301518482036040860152613c02828261320e565b9150506060830151613c176060860182613c48565b506080830151613c2a6080860182613c48565b5060a0830151613c3d60a0860182613c48565b508091505092915050565b613c51816144ea565b82525050565b613c60816144ea565b82525050565b6000613c7182613853565b9150613c7d8289613280565b9150613c88826132b1565b9150613c948288613280565b9150613c9f82613655565b9150613cab8287613280565b9150613cb6826139df565b9150613cc28286613280565b9150613ccd82613397565b9150613cd98285613280565b9150613ce482613a45565b9150613cf08284613280565b9150613cfb82613707565b9150819050979650505050505050565b6000613d1682613939565b9150613d228284613280565b915081905092915050565b6000602082019050613d426000830184613142565b92915050565b6000608082019050613d5d6000830187613142565b613d6a6020830186613142565b613d776040830185613c57565b8181036060830152613d8981846131d5565b905095945050505050565b6000606082019050613da96000830186613142565b613db66020830185613c57565b613dc36040830184613c57565b949350505050565b60006020820190508181036000830152613de58184613151565b905092915050565b6000602082019050613e0260008301846131c6565b92915050565b60006020820190508181036000830152613e228184613247565b905092915050565b60006080820190508181036000830152613e448187613247565b90508181036020830152613e588186613247565b9050613e676040830185613c57565b8181036060830152613e798184613247565b905095945050505050565b60006080820190508181036000830152613e9e8187613247565b90508181036020830152613eb28186613247565b9050613ec16040830185613c57565b613ece6060830184613c57565b95945050505050565b600060a0820190508181036000830152613ef18188613247565b90508181036020830152613f058187613247565b9050613f146040830186613c57565b613f216060830185613c57565b613f2e6080830184613c57565b9695505050505050565b60006040820190508181036000830152613f528185613247565b9050613f616020830184613c57565b9392505050565b60006060820190508181036000830152613f828186613247565b9050613f916020830185613c57565b613f9e6040830184613c57565b949350505050565b60006020820190508181036000830152613fbf816132f1565b9050919050565b60006020820190508181036000830152613fdf81613357565b9050919050565b60006020820190508181036000830152613fff816133d7565b9050919050565b6000602082019050818103600083015261401f81613417565b9050919050565b6000602082019050818103600083015261403f8161347d565b9050919050565b6000602082019050818103600083015261405f816134bd565b9050919050565b6000602082019050818103600083015261407f81613523565b9050919050565b6000602082019050818103600083015261409f81613589565b9050919050565b600060208201905081810360008301526140bf816135ef565b9050919050565b600060208201905081810360008301526140df81613747565b9050919050565b600060208201905081810360008301526140ff81613787565b9050919050565b6000602082019050818103600083015261411f816137ed565b9050919050565b6000602082019050818103600083015261413f81613893565b9050919050565b6000602082019050818103600083015261415f816138f9565b9050919050565b6000602082019050818103600083015261417f81613979565b9050919050565b600060208201905081810360008301526141a08184613aab565b905092915050565b600060208201905081810360008301526141c28184613bb8565b905092915050565b60006020820190506141df6000830184613c57565b92915050565b600060c0820190506141fa6000830189613c57565b818103602083015261420c8188613247565b905081810360408301526142208187613247565b905061422f6060830186613c57565b61423c6080830185613c57565b61424960a0830184613c57565b979650505050505050565b60006040820190506142696000830185613c57565b6142766020830184613c57565b9392505050565b6000604051905081810181811067ffffffffffffffff821117156142a4576142a361466f565b5b8060405250919050565b600067ffffffffffffffff8211156142c9576142c861466f565b5b601f19601f8301169050602081019050919050565b6000819050602082019050919050565b600081519050919050565b600081519050919050565b600081519050919050565b6000602082019050919050565b600082825260208201905092915050565b600082825260208201905092915050565b600082825260208201905092915050565b600082825260208201905092915050565b600081905092915050565b6000614376826144ea565b9150614381836144ea565b9250827fffffffffffffffffffffffffffffffffffffffffffffffffffffffffffffffff038211156143b6576143b56145e2565b5b828201905092915050565b60006143cc826144ea565b91506143d7836144ea565b9250826143e7576143e6614611565b5b828204905092915050565b60006143fd826144ea565b9150614408836144ea565b9250817fffffffffffffffffffffffffffffffffffffffffffffffffffffffffffffffff0483118215151615614441576144406145e2565b5b828202905092915050565b6000614457826144ea565b9150614462836144ea565b925082821015614475576144746145e2565b5b828203905092915050565b600061448b826144ca565b9050919050565b60008115159050919050565b60007fffffffff0000000000000000000000000000000000000000000000000000000082169050919050565b600073ffffffffffffffffffffffffffffffffffffffff82169050919050565b6000819050919050565b82818337600083830152505050565b60005b83811015614521578082015181840152602081019050614506565b83811115614530576000848401525b50505050565b6000600282049050600182168061454e57607f821691505b6020821081141561456257614561614640565b5b50919050565b6000614573826144ea565b91507fffffffffffffffffffffffffffffffffffffffffffffffffffffffffffffffff8214156145a6576145a56145e2565b5b600182019050919050565b60006145bc826144ea565b91506145c7836144ea565b9250826145d7576145d6614611565b5b828206905092915050565b7f4e487b7100000000000000000000000000000000000000000000000000000000600052601160045260246000fd5b7f4e487b7100000000000000000000000000000000000000000000000000000000600052601260045260246000fd5b7f4e487b7100000000000000000000000000000000000000000000000000000000600052602260045260246000fd5b7f4e487b7100000000000000000000000000000000000000000000000000000000600052604160045260246000fd5b6000601f19601f8301169050919050565b6146b881614480565b81146146c357600080fd5b50565b6146cf81614492565b81146146da57600080fd5b50565b6146e68161449e565b81146146f157600080fd5b50565b6146fd816144ea565b811461470857600080fd5b5056fe506c617965722061747461636b656420626f73732e204e657720626f73732068703a2025734142434445464748494a4b4c4d4e4f505152535455565758595a6162636465666768696a6b6c6d6e6f707172737475767778797a303132333435363738392b2f426f73732061747461636b656420706c617965722e204e657720706c617965722068703a2025730a4d696e746564204e465420772f20746f6b656e496420257320616e6420636861726163746572496e6465782025730a506c6179657220772f206368617261637465722025732061626f757420746f2061747461636b2e2048617320257320485020616e64202573204144a26469706673582212203c93dc8ec2a99acc19d8d3cb546ac7520325ca2da270f96a90e56f6b9248693f64736f6c6343000800003354686973206973206d792067616d696e6720636f6e7472616374202d204b617274696b206973207475726e696e672070726f206e6f77446f6e6520696e697469616c697a696e6720257320772f2048502025732c20696d67202573446f6e6520696e697469616c697a696e6720626f737320257320772f2048502025732c20696d67202573",
  "linkReferences": {},
  "deployedLinkReferences": {}
}